:100000000C9463000C948B000C948B000C948B006C
:100010000C948B000C948B000C948B000C948B0034
:100020000C948B000C948B000C948B000C948B0024
:100030000C948B000C948B000C948B000C948B0014
:100040000C9429060C948B000C94F7050C94D105A4
:100050000C948B000C948B000C948B000C948B00F4
:100060000C948B000C948B000000000024002700EF
:100070002A0000000000250028002B0000000000DE
:1000800023002600290004040404040404040202DA
:100090000202020203030303030301020408102007
:1000A0004080010204081020010204081020000012
:1000B0000008000201000003040700000000000027
:1000C00000007306890C11241FBECFEFD8E0DEBFFD
:1000D000CDBF23E0A6E3B2E001C01D92A038B20775
:1000E000E1F712E0A0E0B1E0EAE9FDE102C005902D
:1000F0000D92A633B107D9F710E0C2E6D0E004C0F4
:100100002197FE010E94C80CC136D107C9F70E9491
:1001100038070C94C00E0C94000096E0899FD00123
:100120001124A751BD4F90967C936E935F9791E0F9
:1001300091969C939197E0915603F091570390917B
:100140005503992339F0309751F0811108C08091FF
:1001500005030994309719F05C968C91FACF0895B5
:1001600020917A0330917B038217930738F4209112
:100170007603309177032115310529F410924B0253
:100180008BE492E00895820F931F08950895AF9233
:10019000BF92CF92DF92EF92FF920F931F93CF9374
:1001A000DF936C017B018B01040F151FEB015E01D6
:1001B000AE18BF08C017D10759F06991D601ED916B
:1001C000FC910190F081E02DC6010995892B79F70A
:1001D000C501DF91CF911F910F91FF90EF90DF90BC
:1001E000CF90BF90AF900895FC01538D448D252F83
:1001F00030E0842F90E0821B930B541710F0CF96C1
:10020000089501970895FC01918D828D981761F0F2
:10021000A28DAE0FBF2FB11D5D968C91928D9F5F09
:100220009F73928F90E008958FEF9FEF0895FC01E8
:10023000918D828D981731F0828DE80FF11D858D9B
:1002400090E008958FEF9FEF0895FC01918D228D2E
:10025000892F90E0805C9F4F821B91098F739927B3
:1002600008958CE492E00E94250121E0892B09F495
:1002700020E0822F089580E090E0892B29F00E94F1
:10028000310181110C9400000895FC01A48DA80F88
:10029000B92FB11DA35ABF4F2C91848D90E00196C8
:1002A0008F739927848FA689B7892C93A089B189E8
:1002B0008C91837080648C93938D848D981306C089
:1002C0000288F389E02D80818F7D80830895EF92ED
:1002D000FF920F931F93CF93DF93EC0181E0888F00
:1002E0009B8D8C8D98131AC0E889F989808185FFD0
:1002F00015C09FB7F894EE89FF896083E889F98972
:1003000080818370806480839FBF81E090E0DF9173
:10031000CF911F910F91FF90EF900895F62E0B8DC6
:1003200010E00F5F1F4F0F731127E02E8C8D8E1181
:100330000CC00FB607FCFACFE889F989808185FFE8
:10034000F5CFCE010E944501F1CFEB8DEC0FFD2FD3
:10035000F11DE35AFF4FF0829FB7F8940B8FEA89A3
:10036000FB8980818062CFCFCF93DF93EC01888DB2
:100370008823B9F0AA89BB89E889F9898C9185FD20
:1003800003C0808186FD0DC00FB607FCF7CF8C91AE
:1003900085FFF2CF808185FFEDCFCE010E94450120
:1003A000E9CFDF91CF910895833081F028F4813037
:1003B00099F08230A9F008958730A9F08830C9F00B
:1003C0008430B1F4809180008F7D03C080918000E3
:1003D0008F7780938000089584B58F7784BD0895CA
:1003E00084B58F7DFBCF8091B0008F778093B00074
:1003F00008958091B0008F7DF9CFCF93DF93282FA0
:1004000030E0F901E255FF4F8491F901E656FF4FC4
:10041000D491F901EA57FF4FC491CC23A1F0811187
:100420000E94D401EC2FF0E0EE0FFF1FE458FF4FC5
:10043000A591B491EC91ED2381E090E009F480E086
:10044000DF91CF91089580E090E0FACF862F0C9451
:10045000FD011F93CF93DF93282F30E0F901E25580
:10046000FF4F8491F901E656FF4FD491F901EA5705
:10047000FF4FC491CC23A9F0162F81110E94D40103
:10048000EC2FF0E0EE0FFF1FEE58FF4FA591B49157
:100490008FB7F894EC91111108C0D095DE23DC934E
:1004A0008FBFDF91CF911F910895DE2BF8CF862F5C
:1004B000642F0C942902CF93DF9390E0FC01E65661
:1004C000FF4F24918A579F4FFC0184918823C9F0E4
:1004D00090E0880F991FFC01E859FF4FA591B49156
:1004E000FC01EE58FF4FC591D49161110DC09FB72B
:1004F000F8948C91209582238C93888128232883DB
:100500009FBFDF91CF910895623051F49FB7F89467
:100510003C91822F809583238C93E8812E2BEFCF03
:100520008FB7F894EC912E2B2C938FBFEACF862FA8
:10053000642F0C945B023FB7F89480913B0290913A
:100540003C02A0913D02B0913E0226B5A89B05C099
:100550002F3F19F00196A11DB11D3FBFBA2FA92F42
:10056000982F8827BC01CD01620F711D811D911D3F
:1005700042E0660F771F881F991F4A95D1F70895AB
:100580008F929F92AF92BF92CF92DF92EF92FF92A3
:100590006B017C010E949B024B015C01C114D104E0
:1005A000E104F104B9F00E949B02681979098A09F3
:1005B0009B09683E73408105910580F321E0C21AD2
:1005C000D108E108F10888EE880E83E0981EA11C8E
:1005D000B11CE4CFFF90EF90DF90CF90BF90AF9031
:1005E0009F908F9008952FB7F89460913702709183
:1005F00038028091390290913A022FBF08950F93EB
:100600001F93CF93DF93C82FD62F86E0C89FF001AA
:100610001124E751FD4F11A2878D90A181309105E2
:10062000F1F058F082309105F1F1039709F440C0E0
:10063000DF91CF911F910F9108956623C9F361E077
:1006400070E08C2F0E948D000E94F30260934103A2
:10065000709342038093430390934403E9CF0E9435
:10066000F302009141031091420320914303309122
:100670004403AB01BC01401B510B620B730B809117
:10068000530390915403B0E0A0E084179507A607A8
:10069000B70748F462E070E08C2FDF91CF911F9193
:1006A0000F910C948D0063E070E0D111C1CFF4CFB5
:1006B00070E060E0F1CF0F931F930E94F30260930C
:1006C00054027093550280935602909357028CE423
:1006D00092E00E94030197FF1DC00E94F302009167
:1006E0005402109155022091560230915702601B1E
:1006F000710B820B930B00915002109151022091CB
:100700005202309153026017710782079307F8F283
:100710008FEF9FEF1F910F91089590E080E0089573
:10072000CF93DF93EC0160E08E810E94290261E0AB
:100730008E810E94290260E08E810E9429028BE84E
:1007400091E00197F1F7DF91CF910895CF92DF9279
:10075000EF92FF920F931F93CF93DF936C017C0175
:1007600087E0E80EF11CD0E0C0E0062F10E0B801F1
:100770000C2E02C0759567950A94E2F76170F70137
:1007800081917F010E9429022196C430D10579F719
:10079000C601DF91CF911F910F91FF90EF90DF90F5
:1007A000CF900C949003CF92DF92EF92FF920F9331
:1007B0001F93CF93DF93EC01F62E642F8C810E9460
:1007C00029028D818F3F19F060E00E9429020F2DD0
:1007D00010E08F8584FF25C06E0187E0C80ED11C14
:1007E000F12CE12CB8010E2C02C0759567950A9486
:1007F000E2F76170F60181916F010E942902FFEF1B
:10080000EF1AFF0A88E0E816F10461F7CE01DF91E4
:10081000CF911F910F91FF90EF90DF90CF900C94AC
:100820009003B80184E0759567958A95E1F7CE014C
:100830000E94A6036F2DCE01DF91CF911F910F91E2
:10084000FF90EF90DF90CF900C94A60340E0682FCC
:1008500088E593E00C94D30381E00E9426048BE3A7
:100860009FE10197F1F70895CF93DF93823029F448
:100870009091670398609093670380936B03109245
:100880006C0380E480936D0380E180936E0380E5C8
:1008900080936F0361E080915C030E945B02809112
:1008A0005D038F3F19F061E00E945B0261E080917F
:1008B0005E030E945B02C8E5D3E09E0128553340E9
:1008C0008091670384FD0BC084E090E02196281797
:1008D000390744F461E08E810E945B02EECF88E02C
:1008E00090E0F4CF8BE39DE00197F1F760E0809119
:1008F0005C030E94290260E080915E030E9429024D
:1009000080915D038F3F19F060E00E942902809181
:10091000670384FD34C063E088E593E00E94A6038A
:10092000CBE4D6E4CE010197F1F763E088E593E0EC
:100930000E94A6032197F1F763E088E593E00E9407
:10094000A60383E592E00197F1F762E088E593E082
:100950000E94A6038091670380620E94260484E0BF
:10096000809368038CE00E9426040E942C0482E09D
:100970008093690386E0DF91CF910C942604806216
:100980000E9426048BE496E40197F1F780916703B7
:1009900080620E94260483E592E00197F1F780913E
:1009A000670380620E942604D5CF90916B0369177C
:1009B00010F06FEF690FE62FF0E0E85AFC4F9489D2
:1009C000890F80680C94260441E00E94D30381E0E3
:1009D00090E00895FC0101900020E9F73197AF0104
:1009E000481B590BBC0188E593E00C94C700CF93DA
:1009F000DF93EC01109246020E942C0460E080E03C
:100A00000E94D50488E491E00E94EA0460E085E059
:100A10000E94290261E084E00E942902BE01DD0FEC
:100A2000880B990B0E94C0020E942C048EE491E076
:100A30000E94EA0460E080E00E94D50461E080E06A
:100A4000DF91CF910C94D504CF93DF93FC014481C7
:100A50005581608171818CE492E00E94C700EC01B5
:100A600042E050E06DE571E08CE492E00E94C70046
:100A70008C0F9D1FDF91CF910895FC0180819181A2
:100A8000009711F00C946A0D08950F931F93CF9364
:100A9000DF93EC0188819981009759F02A813B818D
:100AA0002617370730F081E0DF91CF911F910F912A
:100AB00008958B016F5F7F4F0E94F30D009759F0EF
:100AC000998388831B830A832C813D81232B59F7CB
:100AD000FC011082E8CF80E0E7CFEF92FF920F9306
:100AE0001F93CF93DF93EC017B01198218821B8245
:100AF0001A821D821C82FB0101900020E9F73197C8
:100B00008F01061B170BB8010E944505288139810A
:100B1000811113C02115310519F0C9010E946A0D18
:100B2000198218821D821C821B821A82DF91CF914A
:100B30001F910F91FF90EF9008951D830C83B701D3
:100B4000C901DF91CF911F910F91FF90EF900C940D
:100B5000B90E70E060E086E793E00E9445052091C1
:100B6000760330917703811113C02115310519F0F7
:100B7000C9010E946A0D10927703109276031092B9
:100B80007B0310927A0310927903109278030895F0
:100B900010927B0310927A036FE571E0C9010C9407
:100BA000B90E1F920F920FB60F9211242F933F93FD
:100BB0004F935F936F937F938F939F93AF93BF9365
:100BC000EF93FF938CE492E00E944501FF91EF9137
:100BD000BF91AF919F918F917F916F915F914F9155
:100BE0003F912F910F900FBE0F901F9018951F925D
:100BF0000F920FB60F9211242F938F939F93EF9321
:100C0000FF93E0915C02F0915D028081E0916202CD
:100C1000F091630282FD1BC09081809165028F5F1D
:100C20008F7320916602821741F0E0916502F0E037
:100C3000E45BFD4F958F80936502FF91EF919F914B
:100C40008F912F910F900FBE0F901F90189580815C
:100C5000F4CF1F920F920FB60F9211242F933F9350
:100C60008F939F93AF93BF938091370290913802F7
:100C7000A0913902B0913A023091360223E0230F5D
:100C80002D3758F50196A11DB11D20933602809392
:100C9000370290933802A0933902B0933A028091C0
:100CA0003B0290913C02A0913D02B0913E02019620
:100CB000A11DB11D80933B0290933C02A0933D0285
:100CC000B0933E02BF91AF919F918F913F912F9131
:100CD0000F900FBE0F901F90189526E8230F0296D5
:100CE000A11DB11DD2CF10924F0210924E0288EE7C
:100CF00093E0A0E0B0E08093500290935102A09363
:100D00005202B093530284E291E090934D0280939B
:100D10004C0285EC90E0909359028093580284EC49
:100D200090E090935B0280935A0280EC90E0909365
:100D30005D0280935C0281EC90E090935F0280936F
:100D40005E0282EC90E0909361028093600286ECF8
:100D500090E0909363028093620210926502109279
:100D6000660210926702109268026FE571E086E7F2
:100D700093E00E946D056FE571E080E793E00E94CB
:100D80006D0510925B0310925A0380E491E09093FA
:100D90005903809358038EE080935C038FEF809318
:100DA0005D038FE080935E0380E180935F0381E1C8
:100DB0008093600382E18093610383E18093620307
:100DC00010926303109264031092650310926603FD
:100DD0001092670381E00E9434041092EB0210929B
:100DE000EF021092EE021092F00286E391E09093EF
:100DF000EA028093E902E5E0F3E0108214821382B4
:100E00001582369683E0E134F807B9F786E091E081
:100E100090934C0380934B0382E091E090934E03B8
:100E200080934D0384E080934F03809350038AE0C6
:100E300091E090934A03809349038AE090E0909375
:100E400052038093510384EF91E090935403809375
:100E500053031092570310925603109245031092B9
:100E600046031092470310924803109255030895C9
:100E7000CF93DF93CDB7DEB728970FB6F894DEBFD8
:100E80000FBECDBF789484B5826084BD84B5816087
:100E900084BD85B5826085BD85B5816085BD809145
:100EA0006E00816080936E001092810080918100BD
:100EB00082608093810080918100816080938100B5
:100EC000809180008160809380008091B100846077
:100ED0008093B1008091B00081608093B0008091D8
:100EE0007A00846080937A0080917A008260809397
:100EF0007A0080917A00816080937A0080917A00F4
:100F0000806880937A001092C10061E083E00E94C3
:100F10005B0261E082E00E945B0282E00E94340496
:100F200060E080E00E94D50460E671E0CE010196A9
:100F30000E946D05CE0101960E942405CE01019606
:100F40000E943D058CE791E00E94EA0461E080E0A8
:100F50000E94D50461E084E00E942902E0915C02D5
:100F6000F0915D0282E08083E0915802F091590295
:100F70001082E0915A02F0915B028FEC8083109214
:100F80006402E0916002F091610286E08083E0916A
:100F90005E02F0915F02808180618083E0915E0259
:100FA000F0915F02808188608083E0915E02F09121
:100FB0005F02808180688083E0915E02F0915F0231
:100FC00080818F7D808381E38093470280934802F4
:100FD0008093490280934A02412C512C3201439460
:100FE0004FE3E42E42E0F42E8CE492E00E942501CF
:100FF000892B09F485C06FE571E0CE0101960E944E
:101000006D050E945B0397FD1BC08F8318860D81C1
:101010001E810F5F1F4FB801CE0101960E9445054A
:10102000882379F329813A818D819E81BE01695F90
:101030007F4F820F931F0E94B90E1E830D83E1CF55
:101040008091760390917703009709F48CC06981B1
:101050007A816115710509F484C04091780350913B
:1010600079032D813E814217530708F47AC00E940C
:10107000B90E8D819E8190937B0380937A031E82AB
:101080001D82CE0101960E943D050E942C0460E065
:1010900080E00E94D50490E080E00E94B000FC0156
:1010A0008081813309F076C08CE492E00E94B40123
:1010B0000E942C0460E080E00E94D5048BE891E05F
:1010C0000E94EA040E94A90561EA71E0CE0101963E
:1010D0000E946D05CE0101960E942405CE01019665
:1010E0000E943D0568E873E180E090E00E94C00244
:1010F0000E942C0480910001909101010E94F7044C
:1011000081E0809355030E94F30200914503109102
:1011100046032091470330914803AB01BC01401BBB
:10112000510B620B730B8091510390915203B0E00D
:10113000A0E084179507A607B70708F08AC110E05A
:1011400080914F03181708F08CC0E0914B03F09189
:101150004C03E10FF11D62E080810E945B021F5F82
:10116000EFCF0E946A0D89819A81909377038093D3
:1011700076038B819C8190937903809378038D8192
:101180009E8190937B0380937A031A8219821C823A
:101190001B8275CF90E080E00E94B000FC0180814E
:1011A000823309F03FC00E942C0460E080E00E947E
:1011B000D50481E090E00E94B000FC018081809322
:1011C000470282E090E00E94B000FC0180818093A1
:1011D000480283E090E00E94B000FC01808180938F
:1011E000490284E090E00E94B000FC01808180937D
:1011F0004A028DEB91E00E94EA046DEB71E0CE01B2
:1012000001960E946D05CE0101960E942405CE0133
:1012100001960E943D050E94A90568EE73E080E0FA
:1012200090E064CF90E080E00E94B000FC018081FB
:10123000833309F065CF81E090E00E94B000FC01AB
:101240008081082E000C990B90930101809300017E
:101250000E942C0460E080E00E94D50486ED91E0BD
:10126000CACF312C80915003381608F061C0C32CCE
:10127000D12CE0914D03F0914E03EC0DFD1D61E08A
:1012800080810E945B02E0914D03F0914E03EC0DD2
:10129000FD1D60E080810E942902D301C201032C60
:1012A00004C0880F991FAA1FBB1F0A94D2F74C01D4
:1012B0005C01A094B094212C80914F03281608F56E
:1012C000022D10E0E0914B03F0914C03E00FF11F71
:1012D00080810E94FD010C5F1F4F000F111FF8015C
:1012E000E751FD4F892B41F480819181882999290B
:1012F000918380832394E0CF808191818A219B21F7
:10130000F7CFE0914D03F0914E03EC0DFD1D61E030
:1013100080810E94290280914D0390914E03C80E56
:10132000D91E60E0F60180810E945B0233949ACF5F
:1013300009EE12E06801F601878D90A1892B31F446
:10134000148E8FEF9FEF968F858F11A296E0C90EB6
:10135000D11CE5E2F3E0EC15FD0569F7B12C8091B5
:101360004F03B81608F053C0A12C8B2C912C880C7D
:10137000991CC4018F509D4F4C0120915003A2161F
:1013800008F043C0F401608171810A2C02C0769597
:1013900067950A94E2F7B29E900111242A0D311D3F
:1013A000E9EEF2E080E0458D568D2417350709F40B
:1013B000AEC28F5F36968A30B1F760FF24C0E9EE87
:1013C000F2E090E080E0448D411118C0E0914903C3
:1013D000F0914A03E20FF31F408156E0589FF0015D
:1013E000599FF00D1124E751FD4F448F368F258F03
:1013F00010A2178E61E00E94FF0205C0019636968A
:101400008A30910501F7A394B8CFB394A8CFB12C3B
:10141000F80181A18111B82E0A5F1F4F0C151D051F
:10142000B9F70E94F30260934503709346038093DB
:10143000470390934803BB2061F080910A038823FF
:1014400041F0809108039091090360910503019791
:1014500019F01092550360E08091460281114DC24F
:10146000662309F4D1C10091440210914502F801AC
:10147000E15CFD4F6083613429F041E088E593E051
:101480000E94D3030F5F1F4F109345020093440245
:1014900080913F02833481F080914002833461F077
:1014A00080914102833441F080914202833421F0E3
:1014B000809143028334B9F40E942C0460E080E000
:1014C0000E94D5048EE491E00E94EA041092450245
:1014D0001092440285E0F70111928A95E9F761E0E4
:1014E00080E00E94D50480913F028434A9F485E015
:1014F000F70111928A95E9F7109245021092440281
:1015000061E080E00E94D5048BEE91E00E94EA0445
:1015100061E080E00E94D504809140028434E9F4C7
:1015200085E0F70111928A95E9F710924502109231
:10153000440261E081E00E94D5048BEE91E00E94BC
:10154000EA0461E080E00E94D5048BEE91E00E9405
:10155000EA0461E080E00E94D50480914102843475
:1015600019F580913F0295E0F70111929A95E9F7FC
:1015700080933F0281E090E0909345028093440283
:1015800061E082E00E94D5048BEE91E00E94EA04C3
:1015900061E081E00E94D5048BEE91E00E94EA04B4
:1015A00061E081E00E94D50480914202843401F51B
:1015B00083E0E1E4F2E011928A95E9F782E090E0BD
:1015C000909345028093440261E083E00E94D50439
:1015D0008BEE91E00E94EA0461E082E00E94D50473
:1015E0008BEE91E00E94EA0461E082E00E94D50463
:1015F000809143028434F9F485E0F70111928A95D1
:10160000E9F783E090E0909345028093440261E023
:1016100084E00E94D5048BEE91E00E94EA0461E030
:1016200084E00E94D5048BEE91E00E94EA0461E020
:1016300083E00E94D50480914302813409F088C080
:1016400090913F02809147029813EBC09091400225
:10165000809148029813E5C090914102809149021F
:101660009813DFC09091420280914A029813D9C02A
:101670000E942C0460E080E00E94D5048DEE91E091
:101680000E94EA0461E080E00E94D50484E591E0D4
:101690000E94EA0461E083E00E94290260ED77E0A5
:1016A00080E090E00E94C00260E083E00E94290296
:1016B0000E942C0460E080E00E94D50485EF91E058
:1016C0000E94EA04109245021092440285E0F7015C
:1016D00011928A95E9F761E080E00E94D50460E00C
:1016E00084E00E94290261E085E00E94290260EF07
:1016F00082E00E9429026AEF70E080E090E00E94A0
:10170000C00260E082E00E94290268EE73E080E09F
:1017100090E00E94C00281E0809346026BEF71E08E
:10172000CE0101960E946D05CE0101960E9424050E
:10173000CE0101960E943D0568E873E180E090E0EB
:101740000E94C00280910001909101010E94F70463
:10175000809144029091450205970CF455C060E0D9
:1017600080E00E94D50486E292E00E94EA0461E0F3
:1017700083E00E94290260ED77E080E090E00E9423
:10178000C00260E083E00E9429020E942C0460E015
:1017900080E00E94D5048EE491E00E94EA04109259
:1017A00045021092440285E0F70111928A95E9F70B
:1017B00061E080E00E94D50460EF82E00E9429028F
:1017C00064EF71E080E090E00E94C00260EF82E090
:1017D0000E94290264EF71E080E090E00E94C00264
:1017E00060EF82E00E94290264EF71E080E090E007
:1017F0000E94C00260E082E00E94290268EE73E06D
:1018000080E090E00E94C00280E090E0892B09F423
:10181000EBCB0E943101882309F4E6CB0E94000043
:10182000E3CB6EE072E0CE0101960E946D05CE0121
:1018300001960E942405CE0101960E943D0560E0BC
:1018400080E00E94D50486E292E00E94EA0461E012
:1018500083E00E94290260ED77E080E090E00E9442
:10186000C00260E083E00E94290260E085E00E94FF
:10187000290261E084E00E94290260EF82E00E9478
:10188000290264EF71E080E090E00E94C00260EF06
:1018900082E00E94290264EF71E080E090E00E9403
:1018A000C00260EF82E00E94290264EF71E080E0F4
:1018B00090E00E94C00260E082E00E94290268EE8F
:1018C00073E080E090E00E94C0020E942C0460E07F
:1018D00080E00E94D5048EE491E00E94EA04109218
:1018E00045021092440285E0F70111928A95E9F7CA
:1018F00061E080E00E94D5042BCF623409F084CFF0
:1019000080910001909101010E94F7047DCF6170E8
:1019100072CD80E793E00E943D0586E793E00C944A
:101920003D052F923F924F925F926F927F928F92DE
:101930009F92AF92BF92CF92DF92EF92FF920F935E
:101940001F93CF93DF93CDB7DEB7CA1BDB0B0FB668
:10195000F894DEBF0FBECDBF09942A883988488825
:101960005F846E847D848C849B84AA84B984C884BB
:10197000DF80EE80FD800C811B81AA81B981CE0FB2
:10198000D11D0FB6F894DEBF0FBECDBFED01089597
:10199000EE0FFF1F0590F491E02D09940F931F9314
:1019A000CF93DF938230910510F482E090E0E091D4
:1019B0007E03F0917F0330E020E0B0E0A0E03097BC
:1019C00099F42115310509F44AC0281B390B24303C
:1019D0003105D8F58A819B816115710589F1FB017B
:1019E00093838283FE0111C0408151810281138162
:1019F00048175907E0F04817590799F4109761F014
:101A000012960C93129713961C933296CF01DF9186
:101A1000CF911F910F91089500937E0310937F0340
:101A2000F4CF2115310551F04217530738F0A901C1
:101A3000DB019A01BD01DF01F801C1CFEF01F9CF50
:101A400090937F0380937E03CDCFFE01E20FF31FBF
:101A5000819391932250310939832883D7CF2091E4
:101A60007C0330917D03232B41F420911C013091A4
:101A70001D0130937D0320937C0320911A01309146
:101A80001B012115310541F42DB73EB740911E01D0
:101A900050911F01241B350BE0917C03F0917D03D5
:101AA000E217F307A0F42E1B3F0B2817390778F035
:101AB000AC014E5F5F4F2417350748F04E0F5F1F94
:101AC00050937D0340937C03819391939FCFF0E0EB
:101AD000E0E09CCFCF93DF930097E9F0FC013297D1
:101AE00013821282A0917E03B0917F03ED0130E05A
:101AF00020E01097A1F420813181820F931F209163
:101B00007C0330917D032817390709F061C0F093F9
:101B10007D03E0937C03DF91CF910895EA01CE1716
:101B2000DF07E8F54A815B819E0141155105B1F758
:101B3000E901FB83EA8349915991C40FD51FEC1742
:101B4000FD0761F4808191810296840F951FE90160
:101B500099838883828193819B838A83F0E0E0E08C
:101B600012968D919C9113970097B9F52D913C9108
:101B70001197CD010296820F931F20917C03309123
:101B80007D032817390739F6309751F510927F03F6
:101B900010927E03B0937D03A0937C03BCCFD383CC
:101BA000C28340815181840F951FC817D90761F402
:101BB0004E5F5F4F88819981480F591F5183408341
:101BC0008A819B81938382832115310509F0B0CFEF
:101BD000F0937F03E0937E039ECFFD01DC01C0CF35
:101BE00013821282D7CFB0E0A0E0E9EFFDE00C94C1
:101BF000930C8C01009751F4CB010E94CE0C8C0108
:101C0000C801CDB7DEB7E0E10C94AF0CFC01E60FE4
:101C1000F71F9C0122503109E217F30708F49DC019
:101C2000D901CD91DC911197C617D70798F0C5302F
:101C3000D10530F3CE0104978617970708F3C61B2A
:101C4000D70B2297C193D1936D937C93CF010E94C0
:101C50006A0DD6CF5B01AC1ABD0A4C018C0E9D1EDD
:101C6000A0917E03B0917F03512C412CF12CE12CEB
:101C7000109731F580917C0390917D03881599052B
:101C800009F05CC04616570608F058C080911A014A
:101C900090911B01009741F48DB79EB740911E01B2
:101CA00050911F01841B950BE817F90708F055C0E8
:101CB000F0937D03E0937C03F90171836083A0CFEF
:101CC0008D919C91119712966C90129713967C901F
:101CD0001397A815B90559F56C0142E0C40ED11C43
:101CE000CA14DB0420F1AC014A195B09DA0112962F
:101CF000159780F06282738251834083D9016D937E
:101D00007C93E114F10471F0D7011396FC93EE93E8
:101D1000129776CF22968C0F9D1FF90191838083B5
:101D2000F301EFCFF0937F03E0937E0369CF481672
:101D3000590608F42C017D01D3019ACFCB010E94F2
:101D4000CE0C7C01009749F0AE01B8010E94B00EA4
:101D5000C8010E946A0D870153CF10E000E050CF08
:101D6000FB01DC0102C001900D9241505040D8F7B8
:101D70000895FB01DC0101900D920020E1F7089528
:101D800010E0C2E6D0E004C0FE010E94C80C21961B
:0A1D9000C336D107C9F7F894FFCF5E
:101D9A00E8030D0C0B060A090807313233413435C2
:101DAA003642373839432A30234400008003800002
:101DBA00000000006701C700F400B4012501030117
:101DCA0017010000000097025702260200000000D7
:101DDA00E404C7008D03C600436C6F736500577235
:101DEA006974652050617373776F7264000D0A001D
:101DFA005468652073797374656D20686173206215
:101E0A0065656E207374617274656400456E7465ED
:101E1A00722070617373776F726400546865206210
:101E2A006F7820696E206F70656E6564206E6F77BB
:101E3A000074686520626F7820776173206F70651F
:101E4A006E65642072656D6F74656C79005468659F
:101E5A002070617373776F7264206861732063689E
:101E6A00616E676564005468652074696D652068F1
:101E7A006173206368616E676564002000436F7256
:101E8A007265637400456E746572005468652062F9
:101E9A006F7820776173206F70656E656400496E94
:101EAA007365727465642077726F6E6720706173F0
:101EBA0073776F72640057726F6E67205061737325
:061ECA00776F7264000056
:00000001FF
