:020000040000FA
:100000000C9463000C948B000C948B000C948B006C
:100010000C948B000C948B000C948B000C948B0034
:100020000C948B000C948B000C948B000C948B0024
:100030000C948B000C948B000C948B000C948B0014
:100040000C9445060C948B000C9413060C94ED054F
:100050000C948B000C948B000C948B000C948B00F4
:100060000C948B000C948B000000000024002700EF
:100070002A0000000000250028002B0000000000DE
:1000800023002600290004040404040404040202DA
:100090000202020203030303030301020408102007
:1000A0004080010204081020010204081020000012
:1000B0000008000201000003040700000000000027
:1000C00000008F06D70C11241FBECFEFD8E0DEBF93
:1000D000CDBF23E0AEEAB2E001C01D92A33FB2075C
:1000E000E1F712E0A0E0B1E0E8E4FEE102C0059033
:1000F0000D92AE3AB107D9F710E0C2E6D0E004C0E5
:100100002197FE010E94160DC136D107C9F70E9442
:1001100070070C94170F0C94000096E0899FD00193
:100120001124A45ABC4F90967C936E935F9791E0F4
:1001300091969C939197E091C903F091CA03909195
:10014000C803992339F0309751F0811108C080918C
:1001500078030994309719F05C968C91FACF089542
:100160000895AF92BF92CF92DF92EF92FF920F93DA
:100170001F93CF93DF936C017B018B01040F151F3D
:10018000EB015E01AE18BF08C017D10759F06991A5
:10019000D601ED91FC910190F081E02DC601099509
:1001A000892B79F7C501DF91CF911F910F91FF90B6
:1001B000EF90DF90CF90BF90AF900895FC01538DEA
:1001C000448D252F30E0842F90E0821B930B541731
:1001D00010F0CF96089501970895FC01918D828DBE
:1001E000981761F0A28DAE0FBF2FB11D5D968C9157
:1001F000928D9F5F9F73928F90E008958FEF9FEF96
:100200000895FC01918D828D981731F0828DE80F51
:10021000F11D858D90E008958FEF9FEF0895FC010B
:10022000918D228D892F90E0805C9F4F821B9109D8
:100230008F73992708958FEB92E00E940F0121E0C0
:10024000892B09F420E0822F089580E090E0892B2B
:1002500029F00E941B0181110C9400000895FC01FB
:10026000A48DA80FB92FB11DA35ABF4F2C91848D17
:1002700090E001968F739927848FA689B7892C9374
:10028000A089B1898C91837080648C93938D848DC7
:10029000981306C00288F389E02D80818F7D8083CA
:1002A0000895EF92FF920F931F93CF93DF93EC018A
:1002B00081E0888F9B8D8C8D98131AC0E889F9890D
:1002C000808185FF15C09FB7F894EE89FF89608310
:1002D000E889F98980818370806480839FBF81E091
:1002E00090E0DF91CF911F910F91FF90EF900895D3
:1002F000F62E0B8D10E00F5F1F4F0F731127E02EAE
:100300008C8D8E110CC00FB607FCFACFE889F989E5
:10031000808185FFF5CFCE010E942F01F1CFEB8DBB
:10032000EC0FFD2FF11DE35AFF4FF0829FB7F894B9
:100330000B8FEA89FB8980818062CFCFCF93DF93D7
:10034000EC01888D8823B9F0AA89BB89E889F989ED
:100350008C9185FD03C0808186FD0DC00FB607FC22
:10036000F7CF8C9185FFF2CF808185FFEDCFCE0155
:100370000E942F01E9CFDF91CF910895833081F062
:1003800028F4813099F08230A9F008958730A9F0DF
:100390008830C9F08430B1F4809180008F7D03C033
:1003A000809180008F7780938000089584B58F7747
:1003B00084BD089584B58F7DFBCF8091B0008F7789
:1003C0008093B00008958091B0008F7DF9CFCF93D6
:1003D000DF93282F30E0F901E255FF4F8491F901B6
:1003E000E656FF4FD491F901EA57FF4FC491CC2351
:1003F000A1F081110E94BE01EC2FF0E0EE0FFF1F73
:10040000E458FF4FA591B491EC91ED2381E090E089
:1004100009F480E0DF91CF91089580E090E0FACF79
:10042000862F0C94E7011F93CF93DF93282F30E0A2
:10043000F901E255FF4F8491F901E656FF4FD4913F
:10044000F901EA57FF4FC491CC23A9F0162F81116F
:100450000E94BE01EC2FF0E0EE0FFF1FEE58FF4FA1
:10046000A591B4918FB7F894EC91111108C0D09573
:10047000DE23DC938FBFDF91CF911F910895DE2B98
:10048000F8CF862F642F0C941302CF93DF9390E064
:10049000FC01E656FF4F24918A579F4FFC0184913F
:1004A0008823C9F090E0880F991FFC01E859FF4F9D
:1004B000A591B491FC01EE58FF4FC591D491611103
:1004C0000DC09FB7F8948C91209582238C938881DE
:1004D000282328839FBFDF91CF910895623051F484
:1004E0009FB7F8943C91822F809583238C93E88169
:1004F0002E2BEFCF8FB7F894EC912E2B2C938FBF30
:10050000EACF862F642F0C9445023FB7F894809170
:10051000B3029091B402A091B502B091B60226B593
:10052000A89B05C02F3F19F00196A11DB11D3FBF2B
:10053000BA2FA92F982F8827BC01CD01620F711DFA
:10054000811D911D42E0660F771F881F991F4A95F4
:10055000D1F708958F929F92AF92BF92CF92DF9280
:10056000EF92FF924B015C010E9485026B017C01BE
:100570000E9485026C197D098E099F09683E7340AF
:1005800081059105A8F321E0821A9108A108B1081C
:1005900088EEC80E83E0D81EE11CF11C8114910482
:1005A000A104B10429F7FF90EF90DF90CF90BF90A6
:1005B000AF909F908F9008952FB7F8946091AF02FD
:1005C0007091B0028091B1029091B2022FBF089554
:1005D0000F931F93CF93DF93C82FD62F86E0C89F2A
:1005E000F0011124E45AFC4F11A2878D90A18130B3
:1005F0009105F1F058F082309105F1F1039709F47B
:1006000040C0DF91CF911F910F9108956623C9F3E8
:1006100061E070E08C2F0E948D000E94DC026093EC
:10062000B4037093B5038093B6039093B703E9CFF7
:100630000E94DC020091B4031091B5032091B6032F
:100640003091B703AB01BC01401B510B620B730B24
:100650008091C6039091C703B0E0A0E0841795078E
:10066000A607B70748F462E070E08C2FDF91CF91C6
:100670001F910F910C948D0063E070E0D111C1CFF8
:10068000F4CF70E060E0F1CF0F931F930E94DC0283
:100690006093C7027093C8028093C9029093CA0204
:1006A0008FEB92E00E94ED0097FF1DC00E94DC02DC
:1006B0000091C7021091C8022091C9023091CA026C
:1006C000601B710B820B930B0091C3021091C4024B
:1006D0002091C5023091C602601771078207930707
:1006E000F8F28FEF9FEF1F910F91089590E080E057
:1006F0000895CF93DF93EC0160E08E810E94130296
:1007000061E08E810E94130260E08E810E941302DC
:100710008BE891E00197F1F7DF91CF910895CF92A7
:10072000DF92EF92FF920F931F93CF93DF936C01B1
:100730007C0187E0E80EF11CD0E0C0E0062F10E05D
:10074000B8010C2E02C0759567950A94E2F76170A6
:10075000F70181917F010E9413022196C430D105D7
:1007600079F7C601DF91CF911F910F91FF90EF9024
:10077000DF90CF900C947903CF92DF92EF92FF92AB
:100780000F931F93CF93DF93EC01F62E642F8C8190
:100790000E9413028D818F3F19F060E00E941302C6
:1007A0000F2D10E08F8584FF25C06E0187E0C80EF5
:1007B000D11CF12CE12CB8010E2C02C07595679567
:1007C0000A94E2F76170F60181916F010E941302B1
:1007D000FFEFEF1AFF0A88E0E816F10461F7CE0197
:1007E000DF91CF911F910F91FF90EF90DF90CF900D
:1007F0000C947903B80184E0759567958A95E1F7C3
:10080000CE010E948F036F2DCE01DF91CF911F91FA
:100810000F91FF90EF90DF90CF900C948F0340E00A
:10082000682F8BEC93E00C94BC0381E00E940F04D2
:100830008BE39FE10197F1F70895CF93DF93823027
:1008400029F49091DA0398609093DA038093DE03A1
:100850001092DF0380E48093E00380E18093E10362
:1008600080E58093E20361E08091CF030E9445021E
:100870008091D0038F3F19F061E00E94450261E052
:100880008091D1030E944502CBECD3E09E012B5C0A
:1008900033408091DA0384FD0BC084E090E0219620
:1008A0002817390744F461E08E810E944502EECF9B
:1008B00088E090E0F4CF8BE39DE00197F1F760E0F2
:1008C0008091CF030E94130260E08091D1030E94C7
:1008D00013028091D0038F3F19F060E00E94130251
:1008E0008091DA0384FD34C063E08BEC93E00E94D6
:1008F0008F03CBE4D6E4CE010197F1F763E08BECF4
:1009000093E00E948F032197F1F763E08BEC93E073
:100910000E948F0383E592E00197F1F762E08BEC90
:1009200093E00E948F038091DA0380620E940F049B
:1009300084E08093DB038CE00E940F040E94150486
:1009400082E08093DC0386E0DF91CF910C940F046A
:1009500080620E940F048BE496E40197F1F7809186
:10096000DA0380620E940F0483E592E00197F1F7B9
:100970008091DA0380620E940F04D5CF9091DE034C
:10098000691710F06FEF690FE62FF0E0E553FC4FA9
:100990009489890F80680C940F0441E00E94BC0385
:1009A00081E090E00895FB0101900020E9F7319784
:1009B000AF01461B570BDC01ED91FC910280F381E6
:1009C000E02D0994CF93DF93BC018FEB92E00E945E
:1009D000D304EC0166E471E08FEB92E00E94D30453
:1009E0008C0F9D1FDF91CF9108950C94D3040F932A
:1009F0001F93CF93DF938C01EB01FC0180819181E8
:100A00000097E1F06881798161157105A9F0428153
:100A100053812C813D814217530770F00E94100FC3
:100A20008C819D81F801958384831D821C82DF91D6
:100A3000CF911F910F9108950E94B80D88819981DF
:100A4000F801918380838A819B81938382838C8147
:100A50009D8195838483198218821B821A82E5CF37
:100A6000FC0180819181009711F00C94B80D0895DC
:100A7000FC0124813581232B39F421E0FB018081A5
:100A8000882349F020E007C0808191810E94070FF0
:100A900021E0892BB9F7822F08950F931F93CF93ED
:100AA000DF93EC0188819981009759F02A813B817D
:100AB0002617370730F081E0DF91CF911F910F911A
:100AC00008958B016F5F7F4F0E94410E009759F090
:100AD000998388831B830A832C813D81232B59F7BB
:100AE000FC011082E8CF80E0E7CFEF92FF920F93F6
:100AF0001F93CF93DF93EC017B018A01BA010E941F
:100B00004D0528813981811114C02115310519F055
:100B1000C9010E94B80D198218821D821C821B8295
:100B20001A82CE01DF91CF911F910F91FF90EF902C
:100B300008951D830C83B701C9010E94100FF1CFE6
:100B4000EF92FF920F931F93CF93DF9300D0CDB717
:100B5000DEB78C01FC011182108213821282158291
:100B6000148250E040E068E471E00E9475050E9444
:100B7000440397FD1EC089831A82F801E480F58042
:100B8000FFEFEF1AFF0AB701C8010E944D05882345
:100B900071F3F8012081318184819581BE016F5FFD
:100BA0007F4F820F931F0E94100FF801F582E4829D
:100BB000DECFC8010F900F90DF91CF911F910F9161
:100BC000FF90EF900895FB0101900020E9F7319725
:100BD000AF01461B570B0C9475051F920F920FB671
:100BE0000F9211242F933F934F935F936F937F93B3
:100BF0008F939F93AF93BF93EF93FF938FEB92E00D
:100C00000E942F01FF91EF91BF91AF919F918F9122
:100C10007F916F915F914F913F912F910F900FBEF8
:100C20000F901F9018951F920F920FB60F921124DC
:100C30002F938F939F93EF93FF93E091CF02F091C7
:100C4000D0028081E091D502F091D60282FD1BC0D6
:100C500090818091D8028F5F8F732091D902821783
:100C600041F0E091D802F0E0E154FD4F958F809380
:100C7000D802FF91EF919F918F912F910F900FBE0E
:100C80000F901F9018958081F4CF1F920F920FB68E
:100C90000F9211242F933F938F939F93AF93BF9302
:100CA0008091AF029091B002A091B102B091B202D6
:100CB0003091AE0223E0230F2D3758F50196A11D88
:100CC000B11D2093AE028093AF029093B002A09327
:100CD000B102B093B2028091B3029091B402A0919C
:100CE000B502B091B6020196A11DB11D8093B30269
:100CF0009093B402A093B502B093B602BF91AF91A6
:100D00009F918F913F912F910F900FBE0F901F9049
:100D1000189526E8230F0296A11DB11DD2CF10927F
:100D2000C2021092C10288EE93E0A0E0B0E080938E
:100D3000C3029093C402A093C502B093C60282E29C
:100D400091E09093C0028093BF0285EC90E0909375
:100D5000CC028093CB0284EC90E09093CE028093FF
:100D6000CD0280EC90E09093D0028093CF0281EC92
:100D700090E09093D2028093D10282EC90E0909325
:100D8000D4028093D30286EC90E09093D6028093B5
:100D9000D5021092D8021092D9021092DA02109263
:100DA000DB021092EA031092E9031092EC03109216
:100DB000EB031092EE031092ED0350E040E068E484
:100DC00071E089EE93E00E9475051092E4031092A1
:100DD000E3031092E6031092E5031092E8031092E9
:100DE000E70350E040E068E471E083EE93E00E94A6
:100DF00075051092CE031092CD038EE391E090938F
:100E0000CC038093CB038EE08093CF038FEF80934E
:100E1000D0038FE08093D10380E18093D20381E1FE
:100E20008093D30382E18093D40383E18093D5033D
:100E30001092D6031092D7031092D8031092D903C0
:100E40001092DA0381E00E941D0410925E0310925A
:100E50006203109261031092630384E391E0909324
:100E60005D0380935C03E8E7F3E010821482138251
:100E70001582369683E0E43BF807B9F784E091E009
:100E80009093BF038093BE0380E091E09093C103F1
:100E90008093C00384E08093C2038093C30388E0FF
:100EA00091E09093BD038093BC038AE090E090931F
:100EB000C5038093C40384EF91E09093C7038093AC
:100EC000C6031092CA031092C9031092B80310927D
:100ED000B9031092BA031092BB031092C80308958D
:100EE000CF93DF9300D000D000D0CDB7DEB7789499
:100EF00084B5826084BD84B5816084BD85B582601F
:100F000085BD85B5816085BD80916E0081608093CF
:100F10006E00109281008091810082608093810038
:100F20008091810081608093810080918000816048
:100F3000809380008091B10084608093B1008091A3
:100F4000B00081608093B00080917A0084608093CB
:100F50007A0080917A00826080937A0080917A0092
:100F6000816080937A0080917A00806880937A0013
:100F70001092C10061E083E00E94450261E082E0DE
:100F80000E94450282E00E941D0460E080E00E9411
:100F9000BE0469E471E08BEC93E00E94F50461E02B
:100FA00080E00E94BE0461E084E00E941302E091B0
:100FB000CF02F091D00282E08083E091CB02F091E9
:100FC000CC021082E091CD02F091CE028FEC8083B2
:100FD0001092D702E091D302F091D40286E0808390
:100FE000E091D102F091D202808180618083E09112
:100FF000D102F091D202808188608083E091D10299
:10100000F091D202808180688083E091D102F091DA
:10101000D20280818F7D808387E591E00E94E20487
:1010200080E991E00E94E20488EA91E00E94E204F3
:10103000412C512C3201439447EBE42E42E0F42E34
:101040008FEB92E00E940F01892B09F450C068E4F5
:1010500071E083EE93E00E943805882309F447C0CD
:10106000CE0101960E94A005BE016F5F7F4F89EE01
:1010700093E00E94F704CE0101960E9430050E9481
:10108000150460E080E00E94BE0461ED71E089EE2D
:1010900093E00E943805811150C06AEF71E089EE3B
:1010A00093E00E943805882309F4A2C069EE71E03C
:1010B0008FEB92E00E94F5040E94150460E080E04E
:1010C0000E94BE046CEF71E08BEC93E00E94F5048B
:1010D00068E471E089EE93E00E94E30568EE73E056
:1010E00080E090E00E94AA020E94150450C08FEB9D
:1010F00092E00E940F01892B09F449C061ED71E073
:1011000083EE93E00E943805882309F440C0CE01A5
:1011100001960E94A005BE016F5F7F4F83EE93E0B2
:101120000E94F704CE0101960E94300561E472E04E
:101130008FEB92E00E94F5042AC060EC71E08FEB27
:1011400092E00E94F5048FEB92E00E949E010E94C3
:10115000150460E080E00E94BE0463ED71E08BEC5A
:1011600093E00E94F50468E471E089EE93E00E9448
:10117000E30568EE73E080E090E00E94AA020E941E
:10118000150461ED71E083EE93E00E94E30581E0D8
:101190008093C8030E94DC020091B8031091B90348
:1011A0002091BA033091BB03AB01BC01401B510B32
:1011B000620B730B8091C4039091C503B0E0A0E073
:1011C00084179507A607B70708F074C110E080914F
:1011D000C203181708F076C0E091BE03F091BF0378
:1011E000E10FF11D62E080810E9445021F5FEFCF99
:1011F00065E172E083EE93E00E9438056CE172E0F5
:10120000811196CF0E94150460E080E00E94BE0428
:101210001A8219821C821B821E821D826091E90340
:101220007091EA036115710541F04091ED03509111
:10123000EE03CE0101960E9475050D811E810B5FA4
:101240001F4FB801CE0101960E944D0529813A81B8
:10125000882359F18D819E8163E272E0820F931F92
:101260000E94100F1E830D834D815E8169817A81FA
:101270008BEC93E00E94B10066E471E08BEC93E0AC
:101280000E94D304CE0101960E94300561E080E007
:101290000E94BE0469E272E08BEC93E00E94F504C8
:1012A00060E573EC80E090E01DCF2115310519F069
:1012B000C9010E94B80D1A8219821E821D821C82E9
:1012C0001B82D2CF312C8091C303381608F061C045
:1012D000C32CD12CE091C003F091C103EC0DFD1D96
:1012E00061E080810E944502E091C003F091C1035A
:1012F000EC0DFD1D60E080810E941302D301C2014C
:10130000032C04C0880F991FAA1FBB1F0A94D2F791
:101310004C015C01A094B094212C8091C20328164A
:1013200008F5022D10E0E091BE03F091BF03E00F3D
:10133000F11F80810E94E7010C5F1F4F000F111FFA
:10134000F801E45AFC4F892B41F48081918188296E
:101350009929918380832394E0CF808191818A2190
:101360009B21F7CFE091C003F091C103EC0DFD1D6F
:1013700061E080810E9413028091C0039091C103BB
:10138000C80ED91E60E0F60180810E9445023394A8
:101390009ACF0CE513E06801F601878D90A1892BA7
:1013A00031F4148E8FEF9FEF968F858F11A296E008
:1013B000C90ED11CE8E9CE16E3E0DE0669F7B12CD0
:1013C0008091C203B81608F053C0A12C8B2C912C2D
:1013D000880C991CC4018C599C4F4C012091C3036B
:1013E000A21608F043C0F401608171810A2C02C08A
:1013F000769567950A94E2F7B29E900111242A0D22
:10140000311DECE5F3E080E0458D568D241735075E
:1014100009F4CBC28F5F36968A30B1F760FF24C0E3
:10142000ECE5F3E090E080E0448D411118C0E091DC
:10143000BC03F091BD03E20FF31F408156E0589FBB
:10144000F001599FF00D1124E45AFC4F448F368F60
:10145000258F10A2178E61E00E94E80205C0019658
:1014600036968A30910501F7A394B8CFB394A8CFEC
:10147000B12CF80181A18111B82E0A5F1F4FC0164F
:10148000D106B9F70E94DC026093B8037093B903E8
:101490008093BA039093BB03BB2061F080917D03DE
:1014A000882341F080917B0390917C0360917803C5
:1014B000019719F01092C80360E08091BE0281117B
:1014C00044C2662309F4D2C10091BC021091BD024E
:1014D000F801E954FD4F6083613429F041E08BEC61
:1014E00093E00E94BC030F5F1F4F1093BD02009357
:1014F000BC028091B702833481F08091B8028334BA
:1015000061F08091B902833441F08091BA02833452
:1015100021F08091BB028334E9F40E94150460E05D
:1015200080E00E94BE0466E472E08BEC93E00E94CF
:10153000F50486E492E00E94E2041092BD0210924B
:10154000BC0285E0F70111928A95E9F761E080E03D
:101550000E94BE048091B7028434B9F485E0F7019B
:1015600011928A95E9F71092BD021092BC0261E0D7
:1015700080E00E94BE0461E872E08BEC93E00E9480
:10158000F50461E080E00E94BE048091B8028434DA
:1015900009F585E0F70111928A95E9F71092BD02ED
:1015A0001092BC0261E081E00E94BE0461E872E03A
:1015B0008BEC93E00E94F50461E080E00E94BE04A1
:1015C00061E872E08BEC93E00E94F50461E080E05A
:1015D0000E94BE048091B902843439F58091B7022B
:1015E00095E0F70111929A95E9F78093B70281E0AF
:1015F00090E09093BD028093BC0261E082E00E9483
:10160000BE0461E872E08BEC93E00E94F50461E0B7
:1016100081E00E94BE0461E872E08BEC93E00E94DE
:10162000F50461E081E00E94BE048091BA02843436
:1016300021F583E0E9EBF2E011928A95E9F782E087
:1016400090E09093BD028093BC0261E083E00E9431
:10165000BE0461E872E08BEC93E00E94F50461E067
:1016600082E00E94BE0461E872E08BEC93E00E948D
:10167000F50461E082E00E94BE048091BB028434E4
:1016800041F58091B90293E0E9EBF2E011929A956D
:10169000E9F78093B90283E090E09093BD028093D4
:1016A000BC0261E084E00E94BE0461E872E08BEC61
:1016B00093E00E94F50461E084E00E94BE0461E8CA
:1016C00072E08BEC93E00E94F50461E083E00E94FD
:1016D000BE048091BB02813409F068C08091B702DA
:1016E000813309F0D0C08091B802813309F0CBC0BA
:1016F0008091B902813309F0C6C08091BA0281336A
:1017000009F0C1C085E592E00E94E20460E080E05B
:101710000E94BE0466E672E08BEC93E00E94F50442
:1017200061E083E00E94130260ED77E080E090E0EA
:101730000E94AA0260E083E00E9413020E94150446
:1017400060E080E00E94BE0463E872E08BEC93E00E
:101750000E94F5041092BD021092BC0285E0F701D0
:1017600011928A95E9F761E080E00E94BE0460E092
:1017700084E00E94130261E085E00E94130260EFA2
:1017800082E00E9413026AEF70E080E090E00E9425
:10179000AA0260E082E00E94130268EE73E080E03B
:1017A00090E00E94AA0281E08093BE028091BC0278
:1017B0009091BD0205970CF459C060E080E00E9452
:1017C000BE0469E872E08BEC93E00E94F50461E0EE
:1017D00083E00E94130260ED77E080E090E00E94D9
:1017E000AA0260E083E00E9413020E94150460E0F8
:1017F00080E00E94BE0466E472E08BEC93E00E94FD
:10180000F5041092BD021092BC0285E0F70111921E
:101810008A95E9F761E080E00E94BE0460EF82E013
:101820000E94130264EF71E080E090E00E94AA023F
:1018300060EF82E00E94130264EF71E080E090E0CC
:101840000E94AA0260EF82E00E94130264EF71E03E
:1018500080E090E00E94AA0260E082E00E94130211
:1018600068EE73E080E090E00E94AA0280E090E0E1
:10187000892B09F4E5CB0E941B01882309F4E0CBF6
:101880000E940000DDCB60E080E00E94BE0469E8B9
:1018900072E08BEC93E00E94F50461E083E00E942B
:1018A000130260ED77E080E090E00E94AA0260E021
:1018B00083E00E9413020E94150460E080E00E9411
:1018C000BE0466E472E08BEC93E00E94F504109293
:1018D000BD021092BC0285E0F70111928A95E9F7EA
:1018E00061E080E00E94BE0460E085E00E94130297
:1018F00061E084E00E94130260EF82E00E94130224
:1019000064EF71E080E090E00E94AA0260EF82E064
:101910000E94130264EF71E080E090E00E94AA024E
:1019200060EF82E00E94130264EF71E080E090E0DB
:101930000E94AA0260E082E00E94130268EE73E057
:1019400080E090E00E94AA0231CF623409F08ECF8D
:101950001092BE020E94150460E080E00E94BE0466
:1019600067EA72E08BEC93E00E94F50460E085E0AA
:101970000E94130261E084E00E94130260ED77E0B0
:1019800080E090E00E94AA020E94150466E472E0E2
:101990008BEC93E00E94F50460E080E00E94BE04BE
:1019A00061E080E00E94BE0461CF617055CD83EE9E
:1019B00093E00E94300589EE93E00C9430052F925D
:1019C0003F924F925F926F927F928F929F92AF92CF
:1019D000BF92CF92DF92EF92FF920F931F93CF931C
:1019E000DF93CDB7DEB7CA1BDB0B0FB6F894DEBFB3
:1019F0000FBECDBF09942A88398848885F846E84D9
:101A00007D848C849B84AA84B984C884DF80EE8022
:101A1000FD800C811B81AA81B981CE0FD11D0FB62B
:101A2000F894DEBF0FBECDBFED010895EE0FFF1F8E
:101A30000590F491E02D09940F931F93CF93DF93BA
:101A40008230910510F482E090E0E091F103F09192
:101A5000F20330E020E0B0E0A0E0309799F42115E7
:101A6000310509F44AC0281B390B24303105D8F55B
:101A70008A819B816115710589F1FB0193838283C2
:101A8000FE0111C04081518102811381481759071D
:101A9000E0F04817590799F4109761F012960C93EB
:101AA000129713961C933296CF01DF91CF911F911D
:101AB0000F9108950093F1031093F203F4CF2115D1
:101AC000310551F04217530738F0A901DB019A01A3
:101AD000BD01DF01F801C1CFEF01F9CF9093F2030F
:101AE0008093F103CDCFFE01E20FF31F8193919319
:101AF0002250310939832883D7CF2091EF033091C9
:101B0000F003232B41F420911A0130911B013093F3
:101B1000F0032093EF032091180130911901211552
:101B2000310541F42DB73EB740911C0150911D0184
:101B3000241B350BE091EF03F091F003E217F3075C
:101B4000A0F42E1B3F0B2817390778F0AC014E5F2D
:101B50005F4F2417350748F04E0F5F1F5093F00377
:101B60004093EF03819391939FCFF0E0E0E09CCF0F
:101B7000CF93DF930097E9F0FC0132971382128232
:101B8000A091F103B091F203ED0130E020E0109755
:101B9000A1F420813181820F931F2091EF033091B6
:101BA000F0032817390709F061C0F093F003E093C0
:101BB000EF03DF91CF910895EA01CE17DF07E8F533
:101BC0004A815B819E0141155105B1F7E901FB8313
:101BD000EA8349915991C40FD51FEC17FD0761F4B1
:101BE000808191810296840F951FE90199838883F2
:101BF000828193819B838A83F0E0E0E012968D914D
:101C00009C9113970097B9F52D913C911197CD01B7
:101C10000296820F931F2091EF033091F003281753
:101C2000390739F6309751F51092F2031092F1030B
:101C3000B093F003A093EF03BCCFD383C283408162
:101C40005181840F951FC817D90761F44E5F5F4F0C
:101C500088819981480F591F518340838A819B81D4
:101C6000938382832115310509F0B0CFF093F203FD
:101C7000E093F1039ECFFD01DC01C0CF13821282FD
:101C8000D7CFB0E0A0E0E7E4FEE00C94E10C8C01DB
:101C9000009751F4CB010E941C0D8C01C801CDB7F7
:101CA000DEB7E0E10C94FD0CFC01E60FF71F9C0190
:101CB00022503109E217F30708F49DC0D901CD91F4
:101CC000DC911197C617D70798F0C530D10530F3CE
:101CD000CE0104978617970708F3C61BD70B2297E8
:101CE000C193D1936D937C93CF010E94B80DD6CF51
:101CF0005B01AC1ABD0A4C018C0E9D1EA091F10334
:101D0000B091F203512C412CF12CE12C109731F5BC
:101D10008091EF039091F0038815990509F05CC05C
:101D20004616570608F058C0809118019091190185
:101D3000009741F48DB79EB740911C0150911D0151
:101D4000841B950BE817F90708F055C0F093F003D2
:101D5000E093EF03F90171836083A0CF8D919C9193
:101D6000119712966C90129713967C901397A81562
:101D7000B90559F56C0142E0C40ED11CCA14DB044C
:101D800020F1AC014A195B09DA011296159780F02F
:101D90006282738251834083D9016D937C93E114F5
:101DA000F10471F0D7011396FC93EE93129776CF5E
:101DB00022968C0F9D1FF90191838083F301EFCF51
:101DC000F093F203E093F10369CF4816590608F443
:101DD0002C017D01D3019ACFCB010E941C0D7C0107
:101DE000009749F0AE01B8010E94FE0EC8010E94A2
:101DF000B80D870153CF10E000E050CFFB01DC01AC
:101E000002C001900D9241505040D8F70895FB0157
:101E1000DC018D91019080190110D9F3990B08957F
:101E2000FB01DC0101900D920020E1F7089510E024
:101E3000C2E6D0E004C0FE010E94160D2196C33612
:101E4000D107C9F7F894FFCF0D0C0B060A09080754
:101E50003132334134353642373839432A3023441E
:101E60000000F3038000000000005101B100DE001B
:101E70009E010F01ED0001010000000081024102FE
:101E8000100200000000CD04B1007603B0000D0A7E
:101E900000507265737320416E79204B6579005351
:101EA000656C65637420746865206F7074696F6E0B
:101EB000206E756D62657220746F206D6F64696647
:101EC000792074686520626F7820636F6E66696739
:101ED00075726174696F6E00312E204F70656E20CF
:101EE00074686520626F782072656D6F746C79001C
:101EF000322E204368616E676520796F757220709D
:101F0000617373776F7264004F7074696F6E2073C2
:101F1000656C65637465643A2031005468652062BD
:101F20006F7820696E206F70656E6564206E6F77C4
:101F3000004F7074696F6E2073656C6563746564BF
:101F40003A2032005468652070617373776F726451
:101F500020686173206368616E6765640063616D0A
:101F600062696F0043616D62696F0020656C736523
:101F70000049742773206E6F7420612076616C694C
:101F800064206F7074696F6E00486F6C61005772E7
:101F90006974652050617373776F726400436F7268
:101FA000726563742050617373776F726400436F5E
:101FB00072726563742050617373776F726420204E
:101FC0002020202020202020202000456E746572D3
:101FD00000496E636F72726563742050617373772A
:101FE0006F72642020202020202020202020004309
:061FF0006C6F7365000038
:107E0000112484B714BE81FFF0D085E080938100F7
:107E100082E08093C00088E18093C10086E0809377
:107E2000C20080E18093C4008EE0C9D0259A86E02C
:107E300020E33CEF91E0309385002093840096BBD3
:107E4000B09BFECF1D9AA8958150A9F7CC24DD24C4
:107E500088248394B5E0AB2EA1E19A2EF3E0BF2EE7
:107E6000A2D0813461F49FD0082FAFD0023811F036
:107E7000013811F484E001C083E08DD089C08234E0
:107E800011F484E103C0853419F485E0A6D080C0E4
:107E9000853579F488D0E82EFF2485D0082F10E0AE
:107EA000102F00270E291F29000F111F8ED06801E7
:107EB0006FC0863521F484E090D080E0DECF843638
:107EC00009F040C070D06FD0082F6DD080E0C81688
:107ED00080E7D80618F4F601B7BEE895C0E0D1E017
:107EE00062D089930C17E1F7F0E0CF16F0E7DF06D8
:107EF00018F0F601B7BEE89568D007B600FCFDCFD4
:107F0000A601A0E0B1E02C9130E011968C91119780
:107F100090E0982F8827822B932B1296FA010C0160
:107F200087BEE89511244E5F5F4FF1E0A038BF0790
:107F300051F7F601A7BEE89507B600FCFDCF97BE46
:107F4000E89526C08437B1F42ED02DD0F82E2BD052
:107F50003CD0F601EF2C8F010F5F1F4F84911BD097
:107F6000EA94F801C1F70894C11CD11CFA94CF0C13
:107F7000D11C0EC0853739F428D08EE10CD085E9AC
:107F80000AD08FE07ACF813511F488E018D01DD067
:107F900080E101D065CF982F8091C00085FFFCCF94
:107FA0009093C60008958091C00087FFFCCF809118
:107FB000C00084FD01C0A8958091C6000895E0E648
:107FC000F0E098E1908380830895EDDF803219F02E
:107FD00088E0F5DFFFCF84E1DECF1F93182FE3DFCA
:107FE0001150E9F7F2DF1F91089580E0E8DFEE27F6
:047FF000FF270994CA
:027FFE00040479
:00000001FF
